{
  "transactions": [
    {
      "hash": "0x92332a9284c76dc4d2290f1ec7c4e7578deca63f4088a8f7327c8b7ea2b8d5cf",
      "transactionType": "CALL",
      "contractName": "MyPuppyLeLe",
      "contractAddress": "0x58d023da652b76d15d63eab2b513c9fb00b32a90",
      "function": "safeMint(address,string)",
      "arguments": [
        "0xE6a11124B864868a3C7cE704CA889d97E6431462",
        "https://ipfs.io/ipfs/bafkreiehxazn3526idpproo7y4rum3n5wsh3x67c7cn4quc2ad2l4ssdle"
      ],
      "transaction": {
        "from": "0xe6a11124b864868a3c7ce704ca889d97e6431462",
        "to": "0x58d023da652b76d15d63eab2b513c9fb00b32a90",
        "gas": "0x42a2d",
        "value": "0x0",
        "input": "0xd204c45e000000000000000000000000e6a11124b864868a3c7ce704ca889d97e64314620000000000000000000000000000000000000000000000000000000000000040000000000000000000000000000000000000000000000000000000000000005068747470733a2f2f697066732e696f2f697066732f6261666b726569656878617a6e3335323669647070726f6f37793472756d336e35777368337836376337636e34717563326164326c347373646c6500000000000000000000000000000000",
        "nonce": "0x1",
        "chainId": "0xaa36a7"
      },
      "additionalContracts": [],
      "isFixedGasLimit": false
    }
  ],
  "receipts": [
    {
      "status": "0x1",
      "cumulativeGasUsed": "0xac5f84",
      "logs": [
        {
          "address": "0x58d023da652b76d15d63eab2b513c9fb00b32a90",
          "topics": [
            "0xddf252ad1be2c89b69c2b068fc378daa952ba7f163c4a11628f55a4df523b3ef",
            "0x0000000000000000000000000000000000000000000000000000000000000000",
            "0x000000000000000000000000e6a11124b864868a3c7ce704ca889d97e6431462",
            "0x0000000000000000000000000000000000000000000000000000000000000000"
          ],
          "data": "0x",
          "blockHash": "0xa304f710d43f1fd3ba1c9f0615b245de24c7b8587a30feb4f9a00588803a2478",
          "blockNumber": "0x86db96",
          "transactionHash": "0x92332a9284c76dc4d2290f1ec7c4e7578deca63f4088a8f7327c8b7ea2b8d5cf",
          "transactionIndex": "0x68",
          "logIndex": "0xe7",
          "removed": false
        },
        {
          "address": "0x58d023da652b76d15d63eab2b513c9fb00b32a90",
          "topics": [
            "0xf8e1a15aba9398e019f0b49df1a4fde98ee17ae345cb5f6b5e2c27f5033e8ce7"
          ],
          "data": "0x0000000000000000000000000000000000000000000000000000000000000000",
          "blockHash": "0xa304f710d43f1fd3ba1c9f0615b245de24c7b8587a30feb4f9a00588803a2478",
          "blockNumber": "0x86db96",
          "transactionHash": "0x92332a9284c76dc4d2290f1ec7c4e7578deca63f4088a8f7327c8b7ea2b8d5cf",
          "transactionIndex": "0x68",
          "logIndex": "0xe8",
          "removed": false
        }
      ],
      "logsBloom": "0x00000000000000000000000000000000000000000000000000000000000000000000000000000000000000000000000000000000000000000000000000000000000000000000000000000008000000000000000000000000000000000000000000000000020000000000000000000800000000000000000000000010000010000000000000000000000000000000000000000000000000022000000000000000000000000000000000000000000000002000000000000000000000000000008000000002000000000000000000040000000000000000200000000000000020000000000010000000200000000000000000000000000000000000000000000000",
      "type": "0x2",
      "transactionHash": "0x92332a9284c76dc4d2290f1ec7c4e7578deca63f4088a8f7327c8b7ea2b8d5cf",
      "transactionIndex": "0x68",
      "blockHash": "0xa304f710d43f1fd3ba1c9f0615b245de24c7b8587a30feb4f9a00588803a2478",
      "blockNumber": "0x86db96",
      "gasUsed": "0x2d903",
      "effectiveGasPrice": "0xf1087a",
      "from": "0xe6a11124b864868a3c7ce704ca889d97e6431462",
      "to": "0x58d023da652b76d15d63eab2b513c9fb00b32a90",
      "contractAddress": null
    }
  ],
  "libraries": [],
  "pending": [],
  "returns": {},
  "timestamp": 1753431240,
  "chain": 11155111,
  "commit": "2186ccb"
}